{
  "contractName": "ClothesFactory",
  "abi": [
    {
      "inputs": [],
      "stateMutability": "nonpayable",
      "type": "constructor"
    },
    {
      "anonymous": false,
      "inputs": [
        {
          "indexed": true,
          "internalType": "address",
          "name": "owner",
          "type": "address"
        },
        {
          "indexed": true,
          "internalType": "address",
          "name": "approved",
          "type": "address"
        },
        {
          "indexed": true,
          "internalType": "uint256",
          "name": "tokenId",
          "type": "uint256"
        }
      ],
      "name": "Approval",
      "type": "event"
    },
    {
      "anonymous": false,
      "inputs": [
        {
          "indexed": true,
          "internalType": "address",
          "name": "owner",
          "type": "address"
        },
        {
          "indexed": true,
          "internalType": "address",
          "name": "operator",
          "type": "address"
        },
        {
          "indexed": false,
          "internalType": "bool",
          "name": "approved",
          "type": "bool"
        }
      ],
      "name": "ApprovalForAll",
      "type": "event"
    },
    {
      "anonymous": false,
      "inputs": [
        {
          "indexed": false,
          "internalType": "uint256",
          "name": "tokenId",
          "type": "uint256"
        },
        {
          "indexed": false,
          "internalType": "address",
          "name": "seller",
          "type": "address"
        },
        {
          "indexed": false,
          "internalType": "address",
          "name": "owner",
          "type": "address"
        },
        {
          "indexed": false,
          "internalType": "uint256",
          "name": "price",
          "type": "uint256"
        }
      ],
      "name": "DressItemCreated",
      "type": "event"
    },
    {
      "anonymous": false,
      "inputs": [
        {
          "indexed": false,
          "internalType": "uint256",
          "name": "tokenId",
          "type": "uint256"
        },
        {
          "indexed": false,
          "internalType": "address",
          "name": "owner",
          "type": "address"
        },
        {
          "indexed": false,
          "internalType": "uint256",
          "name": "price",
          "type": "uint256"
        }
      ],
      "name": "DressonSale",
      "type": "event"
    },
    {
      "anonymous": false,
      "inputs": [
        {
          "indexed": true,
          "internalType": "address",
          "name": "from",
          "type": "address"
        },
        {
          "indexed": true,
          "internalType": "address",
          "name": "to",
          "type": "address"
        },
        {
          "indexed": true,
          "internalType": "uint256",
          "name": "tokenId",
          "type": "uint256"
        }
      ],
      "name": "Transfer",
      "type": "event"
    },
    {
      "inputs": [],
      "name": "PREZZO_LISTINO",
      "outputs": [
        {
          "internalType": "uint256",
          "name": "",
          "type": "uint256"
        }
      ],
      "stateMutability": "view",
      "type": "function",
      "constant": true
    },
    {
      "inputs": [
        {
          "internalType": "address",
          "name": "to",
          "type": "address"
        },
        {
          "internalType": "uint256",
          "name": "tokenId",
          "type": "uint256"
        }
      ],
      "name": "approve",
      "outputs": [],
      "stateMutability": "nonpayable",
      "type": "function"
    },
    {
      "inputs": [
        {
          "internalType": "address",
          "name": "owner",
          "type": "address"
        }
      ],
      "name": "balanceOf",
      "outputs": [
        {
          "internalType": "uint256",
          "name": "",
          "type": "uint256"
        }
      ],
      "stateMutability": "view",
      "type": "function",
      "constant": true
    },
    {
      "inputs": [
        {
          "internalType": "uint256",
          "name": "tokenId",
          "type": "uint256"
        }
      ],
      "name": "getApproved",
      "outputs": [
        {
          "internalType": "address",
          "name": "",
          "type": "address"
        }
      ],
      "stateMutability": "view",
      "type": "function",
      "constant": true
    },
    {
      "inputs": [
        {
          "internalType": "address",
          "name": "owner",
          "type": "address"
        },
        {
          "internalType": "address",
          "name": "operator",
          "type": "address"
        }
      ],
      "name": "isApprovedForAll",
      "outputs": [
        {
          "internalType": "bool",
          "name": "",
          "type": "bool"
        }
      ],
      "stateMutability": "view",
      "type": "function",
      "constant": true
    },
    {
      "inputs": [],
      "name": "name",
      "outputs": [
        {
          "internalType": "string",
          "name": "",
          "type": "string"
        }
      ],
      "stateMutability": "view",
      "type": "function",
      "constant": true
    },
    {
      "inputs": [
        {
          "internalType": "uint256",
          "name": "tokenId",
          "type": "uint256"
        }
      ],
      "name": "ownerOf",
      "outputs": [
        {
          "internalType": "address",
          "name": "",
          "type": "address"
        }
      ],
      "stateMutability": "view",
      "type": "function",
      "constant": true
    },
    {
      "inputs": [
        {
          "internalType": "address",
          "name": "from",
          "type": "address"
        },
        {
          "internalType": "address",
          "name": "to",
          "type": "address"
        },
        {
          "internalType": "uint256",
          "name": "tokenId",
          "type": "uint256"
        }
      ],
      "name": "safeTransferFrom",
      "outputs": [],
      "stateMutability": "nonpayable",
      "type": "function"
    },
    {
      "inputs": [
        {
          "internalType": "address",
          "name": "from",
          "type": "address"
        },
        {
          "internalType": "address",
          "name": "to",
          "type": "address"
        },
        {
          "internalType": "uint256",
          "name": "tokenId",
          "type": "uint256"
        },
        {
          "internalType": "bytes",
          "name": "data",
          "type": "bytes"
        }
      ],
      "name": "safeTransferFrom",
      "outputs": [],
      "stateMutability": "nonpayable",
      "type": "function"
    },
    {
      "inputs": [
        {
          "internalType": "address",
          "name": "operator",
          "type": "address"
        },
        {
          "internalType": "bool",
          "name": "approved",
          "type": "bool"
        }
      ],
      "name": "setApprovalForAll",
      "outputs": [],
      "stateMutability": "nonpayable",
      "type": "function"
    },
    {
      "inputs": [
        {
          "internalType": "bytes4",
          "name": "interfaceId",
          "type": "bytes4"
        }
      ],
      "name": "supportsInterface",
      "outputs": [
        {
          "internalType": "bool",
          "name": "",
          "type": "bool"
        }
      ],
      "stateMutability": "view",
      "type": "function",
      "constant": true
    },
    {
      "inputs": [],
      "name": "symbol",
      "outputs": [
        {
          "internalType": "string",
          "name": "",
          "type": "string"
        }
      ],
      "stateMutability": "view",
      "type": "function",
      "constant": true
    },
    {
      "inputs": [
        {
          "internalType": "uint256",
          "name": "tokenId",
          "type": "uint256"
        }
      ],
      "name": "tokenURI",
      "outputs": [
        {
          "internalType": "string",
          "name": "",
          "type": "string"
        }
      ],
      "stateMutability": "view",
      "type": "function",
      "constant": true
    },
    {
      "inputs": [
        {
          "internalType": "address",
          "name": "from",
          "type": "address"
        },
        {
          "internalType": "address",
          "name": "to",
          "type": "address"
        },
        {
          "internalType": "uint256",
          "name": "tokenId",
          "type": "uint256"
        }
      ],
      "name": "transferFrom",
      "outputs": [],
      "stateMutability": "nonpayable",
      "type": "function"
    },
    {
      "inputs": [
        {
          "internalType": "uint256",
          "name": "newPrice",
          "type": "uint256"
        }
      ],
      "name": "updatePrezzoListino",
      "outputs": [],
      "stateMutability": "nonpayable",
      "type": "function"
    },
    {
      "inputs": [
        {
          "internalType": "string",
          "name": "TokenURI",
          "type": "string"
        },
        {
          "internalType": "string",
          "name": "_n",
          "type": "string"
        },
        {
          "internalType": "bool",
          "name": "_onSale",
          "type": "bool"
        },
        {
          "internalType": "uint256",
          "name": "prezzo",
          "type": "uint256"
        }
      ],
      "name": "createDress",
      "outputs": [
        {
          "internalType": "uint256",
          "name": "",
          "type": "uint256"
        }
      ],
      "stateMutability": "payable",
      "type": "function",
      "payable": true
    },
    {
      "inputs": [
        {
          "internalType": "uint256",
          "name": "_dressId",
          "type": "uint256"
        }
      ],
      "name": "createDressMarketSale",
      "outputs": [],
      "stateMutability": "payable",
      "type": "function",
      "payable": true
    },
    {
      "inputs": [],
      "name": "getAllOnSale",
      "outputs": [
        {
          "internalType": "uint256[]",
          "name": "",
          "type": "uint256[]"
        }
      ],
      "stateMutability": "view",
      "type": "function",
      "constant": true
    },
    {
      "inputs": [],
      "name": "getMyDress",
      "outputs": [
        {
          "internalType": "uint256[]",
          "name": "",
          "type": "uint256[]"
        }
      ],
      "stateMutability": "view",
      "type": "function",
      "constant": true
    },
    {
      "inputs": [],
      "name": "getPrezzoListino",
      "outputs": [
        {
          "internalType": "uint256",
          "name": "",
          "type": "uint256"
        }
      ],
      "stateMutability": "view",
      "type": "function",
      "constant": true
    },
    {
      "inputs": [
        {
          "internalType": "uint256",
          "name": "_id",
          "type": "uint256"
        }
      ],
      "name": "getDress",
      "outputs": [
        {
          "internalType": "uint256",
          "name": "",
          "type": "uint256"
        },
        {
          "internalType": "address payable",
          "name": "",
          "type": "address"
        },
        {
          "internalType": "uint256",
          "name": "",
          "type": "uint256"
        },
        {
          "internalType": "bool",
          "name": "",
          "type": "bool"
        },
        {
          "internalType": "string",
          "name": "",
          "type": "string"
        }
      ],
      "stateMutability": "view",
      "type": "function",
      "constant": true
    },
    {
      "inputs": [
        {
          "internalType": "uint256",
          "name": "_tokenId",
          "type": "uint256"
        }
      ],
      "name": "setOnSale",
      "outputs": [
        {
          "internalType": "uint256",
          "name": "",
          "type": "uint256"
        }
      ],
      "stateMutability": "nonpayable",
      "type": "function"
    }
  ],
  "bytecode": "0x6080604052671bc16d674ec800006008553480156200001d57600080fd5b506040518060400160405280600581526020017f44726573730000000000000000000000000000000000000000000000000000008152506040518060400160405280600381526020017f445253000000000000000000000000000000000000000000000000000000000081525081600090816200009b919062000371565b508060019081620000ad919062000371565b50505033600960006101000a81548173ffffffffffffffffffffffffffffffffffffffff021916908373ffffffffffffffffffffffffffffffffffffffff16021790555062000458565b600081519050919050565b7f4e487b7100000000000000000000000000000000000000000000000000000000600052604160045260246000fd5b7f4e487b7100000000000000000000000000000000000000000000000000000000600052602260045260246000fd5b600060028204905060018216806200017957607f821691505b6020821081036200018f576200018e62000131565b5b50919050565b60008190508160005260206000209050919050565b60006020601f8301049050919050565b600082821b905092915050565b600060088302620001f97fffffffffffffffffffffffffffffffffffffffffffffffffffffffffffffffff82620001ba565b620002058683620001ba565b95508019841693508086168417925050509392505050565b6000819050919050565b6000819050919050565b6000620002526200024c62000246846200021d565b62000227565b6200021d565b9050919050565b6000819050919050565b6200026e8362000231565b620002866200027d8262000259565b848454620001c7565b825550505050565b600090565b6200029d6200028e565b620002aa81848462000263565b505050565b5b81811015620002d257620002c660008262000293565b600181019050620002b0565b5050565b601f8211156200032157620002eb8162000195565b620002f684620001aa565b8101602085101562000306578190505b6200031e6200031585620001aa565b830182620002af565b50505b505050565b600082821c905092915050565b6000620003466000198460080262000326565b1980831691505092915050565b600062000361838362000333565b9150826002028217905092915050565b6200037c82620000f7565b67ffffffffffffffff81111562000398576200039762000102565b5b620003a4825462000160565b620003b1828285620002d6565b600060209050601f831160018114620003e95760008415620003d4578287015190505b620003e0858262000353565b86555062000450565b601f198416620003f98662000195565b60005b828110156200042357848901518255600182019150602085019450602081019050620003fc565b868310156200044357848901516200043f601f89168262000333565b8355505b6001600288020188555050505b505050505050565b613a5a80620004686000396000f3fe6080604052600436106101355760003560e01c806390894559116100ab578063c87b56dd1161006f578063c87b56dd1461042f578063cf0406fa1461046c578063d4916d0814610495578063e275ba43146104d2578063e985e9c514610502578063fd61400d1461053f57610135565b8063908945591461034657806395b78d791461037157806395d89b41146103b2578063a22cb465146103dd578063b88d4fde1461040657610135565b80631c3e5857116100fd5780631c3e58571461023357806323b872dd1461024f57806342842e0e146102785780636352211e146102a1578063675916be146102de57806370a082311461030957610135565b806301ffc9a71461013a57806306fdde0314610177578063081812fc146101a2578063095ea7b3146101df57806317cc196314610208575b600080fd5b34801561014657600080fd5b50610161600480360381019061015c91906124cb565b61056a565b60405161016e9190612513565b60405180910390f35b34801561018357600080fd5b5061018c61064c565b60405161019991906125be565b60405180910390f35b3480156101ae57600080fd5b506101c960048036038101906101c49190612616565b6106de565b6040516101d69190612684565b60405180910390f35b3480156101eb57600080fd5b50610206600480360381019061020191906126cb565b610724565b005b34801561021457600080fd5b5061021d61083b565b60405161022a919061271a565b60405180910390f35b61024d60048036038101906102489190612616565b610841565b005b34801561025b57600080fd5b5061027660048036038101906102719190612735565b6109c7565b005b34801561028457600080fd5b5061029f600480360381019061029a9190612735565b610a27565b005b3480156102ad57600080fd5b506102c860048036038101906102c39190612616565b610a47565b6040516102d59190612684565b60405180910390f35b3480156102ea57600080fd5b506102f3610acd565b6040516103009190612846565b60405180910390f35b34801561031557600080fd5b50610330600480360381019061032b9190612868565b610c1c565b60405161033d919061271a565b60405180910390f35b34801561035257600080fd5b5061035b610cd3565b6040516103689190612846565b60405180910390f35b34801561037d57600080fd5b5061039860048036038101906103939190612616565b610de5565b6040516103a99594939291906128b6565b60405180910390f35b3480156103be57600080fd5b506103c7610f44565b6040516103d491906125be565b60405180910390f35b3480156103e957600080fd5b5061040460048036038101906103ff919061293c565b610fd6565b005b34801561041257600080fd5b5061042d60048036038101906104289190612ab1565b610fec565b005b34801561043b57600080fd5b5061045660048036038101906104519190612616565b61104e565b60405161046391906125be565b60405180910390f35b34801561047857600080fd5b50610493600480360381019061048e9190612616565b611160565b005b3480156104a157600080fd5b506104bc60048036038101906104b79190612616565b6111fa565b6040516104c9919061271a565b60405180910390f35b6104ec60048036038101906104e79190612bd5565b61126c565b6040516104f9919061271a565b60405180910390f35b34801561050e57600080fd5b5061052960048036038101906105249190612c74565b611453565b6040516105369190612513565b60405180910390f35b34801561054b57600080fd5b506105546114e7565b604051610561919061271a565b60405180910390f35b60007f80ac58cd000000000000000000000000000000000000000000000000000000007bffffffffffffffffffffffffffffffffffffffffffffffffffffffff1916827bffffffffffffffffffffffffffffffffffffffffffffffffffffffff1916148061063557507f5b5e139f000000000000000000000000000000000000000000000000000000007bffffffffffffffffffffffffffffffffffffffffffffffffffffffff1916827bffffffffffffffffffffffffffffffffffffffffffffffffffffffff1916145b806106455750610644826114f1565b5b9050919050565b60606000805461065b90612ce3565b80601f016020809104026020016040519081016040528092919081815260200182805461068790612ce3565b80156106d45780601f106106a9576101008083540402835291602001916106d4565b820191906000526020600020905b8154815290600101906020018083116106b757829003601f168201915b5050505050905090565b60006106e98261155b565b6004600083815260200190815260200160002060009054906101000a900473ffffffffffffffffffffffffffffffffffffffff169050919050565b600061072f82610a47565b90508073ffffffffffffffffffffffffffffffffffffffff168373ffffffffffffffffffffffffffffffffffffffff160361079f576040517f08c379a000000000000000000000000000000000000000000000000000000000815260040161079690612d86565b60405180910390fd5b8073ffffffffffffffffffffffffffffffffffffffff166107be6115a6565b73ffffffffffffffffffffffffffffffffffffffff1614806107ed57506107ec816107e76115a6565b611453565b5b61082c576040517f08c379a000000000000000000000000000000000000000000000000000000000815260040161082390612e18565b60405180910390fd5b61083683836115ae565b505050565b60085481565b6000670de0b6b3a7640000600a60008481526020019081526020016000206003015461086d9190612e67565b90506000600a600084815260200190815260200160002060010160009054906101000a900473ffffffffffffffffffffffffffffffffffffffff1690508134146108ec576040517f08c379a00000000000000000000000000000000000000000000000000000000081526004016108e390612f1b565b60405180910390fd5b33600a600085815260200190815260200160002060010160006101000a81548173ffffffffffffffffffffffffffffffffffffffff021916908373ffffffffffffffffffffffffffffffffffffffff1602179055506000600a600085815260200190815260200160002060040160006101000a81548160ff02191690831515021790555061097b813385611667565b8073ffffffffffffffffffffffffffffffffffffffff166108fc349081150290604051600060405180830381858888f193505050501580156109c1573d6000803e3d6000fd5b50505050565b6109d86109d26115a6565b82611960565b610a17576040517f08c379a0000000000000000000000000000000000000000000000000000000008152600401610a0e90612fad565b60405180910390fd5b610a22838383611667565b505050565b610a4283838360405180602001604052806000815250610fec565b505050565b600080610a53836119f5565b9050600073ffffffffffffffffffffffffffffffffffffffff168173ffffffffffffffffffffffffffffffffffffffff1603610ac4576040517f08c379a0000000000000000000000000000000000000000000000000000000008152600401610abb90613019565b60405180910390fd5b80915050919050565b6060600080610adc6007611a32565b67ffffffffffffffff811115610af557610af4612986565b5b604051908082528060200260200182016040528015610b235781602001602082028036833780820191505090505b50905060005b610b336007611a32565b811015610c13573373ffffffffffffffffffffffffffffffffffffffff16600a6000600184610b629190613039565b815260200190815260200160002060010160009054906101000a900473ffffffffffffffffffffffffffffffffffffffff1673ffffffffffffffffffffffffffffffffffffffff1603610c0057600a6000600183610bc09190613039565b815260200190815260200160002060000154828481518110610be557610be461306d565b5b6020026020010181815250508280610bfc9061309c565b9350505b8080610c0b9061309c565b915050610b29565b50809250505090565b60008073ffffffffffffffffffffffffffffffffffffffff168273ffffffffffffffffffffffffffffffffffffffff1603610c8c576040517f08c379a0000000000000000000000000000000000000000000000000000000008152600401610c8390613156565b60405180910390fd5b600360008373ffffffffffffffffffffffffffffffffffffffff1673ffffffffffffffffffffffffffffffffffffffff168152602001908152602001600020549050919050565b60606000610ce16007611a32565b90506000808267ffffffffffffffff811115610d0057610cff612986565b5b604051908082528060200260200182016040528015610d2e5781602001602082028036833780820191505090505b50905060005b83811015610ddb5760011515600a6000600184610d519190613039565b815260200190815260200160002060040160009054906101000a900460ff16151503610dc857600a6000600183610d889190613039565b815260200190815260200160002060000154828481518110610dad57610dac61306d565b5b6020026020010181815250508280610dc49061309c565b9350505b8080610dd39061309c565b915050610d34565b5080935050505090565b60008060008060606000670de0b6b3a7640000600a600089815260200190815260200160002060030154610e199190612e67565b9050600a600088815260200190815260200160002060000154600a600089815260200190815260200160002060010160009054906101000a900473ffffffffffffffffffffffffffffffffffffffff1682600a60008b815260200190815260200160002060040160009054906101000a900460ff16600a60008c8152602001908152602001600020600201808054610eb090612ce3565b80601f0160208091040260200160405190810160405280929190818152602001828054610edc90612ce3565b8015610f295780601f10610efe57610100808354040283529160200191610f29565b820191906000526020600020905b815481529060010190602001808311610f0c57829003601f168201915b50505050509050955095509550955095505091939590929450565b606060018054610f5390612ce3565b80601f0160208091040260200160405190810160405280929190818152602001828054610f7f90612ce3565b8015610fcc5780601f10610fa157610100808354040283529160200191610fcc565b820191906000526020600020905b815481529060010190602001808311610faf57829003601f168201915b5050505050905090565b610fe8610fe16115a6565b8383611a40565b5050565b610ffd610ff76115a6565b83611960565b61103c576040517f08c379a000000000000000000000000000000000000000000000000000000000815260040161103390612fad565b60405180910390fd5b61104884848484611bac565b50505050565b60606110598261155b565b600060066000848152602001908152602001600020805461107990612ce3565b80601f01602080910402602001604051908101604052809291908181526020018280546110a590612ce3565b80156110f25780601f106110c7576101008083540402835291602001916110f2565b820191906000526020600020905b8154815290600101906020018083116110d557829003601f168201915b505050505090506000611103611c08565b9050600081510361111857819250505061115b565b60008251111561114d5780826040516020016111359291906131b2565b6040516020818303038152906040529250505061115b565b61115684611c1f565b925050505b919050565b600960009054906101000a900473ffffffffffffffffffffffffffffffffffffffff1673ffffffffffffffffffffffffffffffffffffffff163373ffffffffffffffffffffffffffffffffffffffff16146111f0576040517f08c379a00000000000000000000000000000000000000000000000000000000081526004016111e790613222565b60405180910390fd5b8060088190555050565b6000801515600a600084815260200190815260200160002060040160009054906101000a900460ff16151503611262576001600a600084815260200190815260200160002060040160006101000a81548160ff02191690831515021790555060019050611267565b600090505b919050565b60008082116112b0576040517f08c379a00000000000000000000000000000000000000000000000000000000081526004016112a7906132b4565b60405180910390fd5b60085434146112be57600080fd5b6112c86007611c87565b60006112d46007611a32565b905060003390506112e58183611c9d565b6112ef8288611eba565b60006040518060a001604052808481526020013373ffffffffffffffffffffffffffffffffffffffff168152602001888152602001868152602001871515815250905080600a60008581526020019081526020016000206000820151816000015560208201518160010160006101000a81548173ffffffffffffffffffffffffffffffffffffffff021916908373ffffffffffffffffffffffffffffffffffffffff16021790555060408201518160020190816113ac9190613480565b506060820151816003015560808201518160040160006101000a81548160ff021916908315150217905550905050600960009054906101000a900473ffffffffffffffffffffffffffffffffffffffff1673ffffffffffffffffffffffffffffffffffffffff166108fc6008549081150290604051600060405180830381858888f19350505050158015611444573d6000803e3d6000fd5b50829350505050949350505050565b6000600560008473ffffffffffffffffffffffffffffffffffffffff1673ffffffffffffffffffffffffffffffffffffffff16815260200190815260200160002060008373ffffffffffffffffffffffffffffffffffffffff1673ffffffffffffffffffffffffffffffffffffffff16815260200190815260200160002060009054906101000a900460ff16905092915050565b6000600854905090565b60007f01ffc9a7000000000000000000000000000000000000000000000000000000007bffffffffffffffffffffffffffffffffffffffffffffffffffffffff1916827bffffffffffffffffffffffffffffffffffffffffffffffffffffffff1916149050919050565b61156481611f27565b6115a3576040517f08c379a000000000000000000000000000000000000000000000000000000000815260040161159a90613019565b60405180910390fd5b50565b600033905090565b816004600083815260200190815260200160002060006101000a81548173ffffffffffffffffffffffffffffffffffffffff021916908373ffffffffffffffffffffffffffffffffffffffff160217905550808273ffffffffffffffffffffffffffffffffffffffff1661162183610a47565b73ffffffffffffffffffffffffffffffffffffffff167f8c5be1e5ebec7d5bd14f71427d1e84f3dd0314c0f7b2291e5b200ac8c7c3b92560405160405180910390a45050565b8273ffffffffffffffffffffffffffffffffffffffff1661168782610a47565b73ffffffffffffffffffffffffffffffffffffffff16146116dd576040517f08c379a00000000000000000000000000000000000000000000000000000000081526004016116d4906135c4565b60405180910390fd5b600073ffffffffffffffffffffffffffffffffffffffff168273ffffffffffffffffffffffffffffffffffffffff160361174c576040517f08c379a000000000000000000000000000000000000000000000000000000000815260040161174390613656565b60405180910390fd5b6117598383836001611f68565b8273ffffffffffffffffffffffffffffffffffffffff1661177982610a47565b73ffffffffffffffffffffffffffffffffffffffff16146117cf576040517f08c379a00000000000000000000000000000000000000000000000000000000081526004016117c6906135c4565b60405180910390fd5b6004600082815260200190815260200160002060006101000a81549073ffffffffffffffffffffffffffffffffffffffff02191690556001600360008573ffffffffffffffffffffffffffffffffffffffff1673ffffffffffffffffffffffffffffffffffffffff168152602001908152602001600020600082825403925050819055506001600360008473ffffffffffffffffffffffffffffffffffffffff1673ffffffffffffffffffffffffffffffffffffffff16815260200190815260200160002060008282540192505081905550816002600083815260200190815260200160002060006101000a81548173ffffffffffffffffffffffffffffffffffffffff021916908373ffffffffffffffffffffffffffffffffffffffff160217905550808273ffffffffffffffffffffffffffffffffffffffff168473ffffffffffffffffffffffffffffffffffffffff167fddf252ad1be2c89b69c2b068fc378daa952ba7f163c4a11628f55a4df523b3ef60405160405180910390a461195b838383600161208e565b505050565b60008061196c83610a47565b90508073ffffffffffffffffffffffffffffffffffffffff168473ffffffffffffffffffffffffffffffffffffffff1614806119ae57506119ad8185611453565b5b806119ec57508373ffffffffffffffffffffffffffffffffffffffff166119d4846106de565b73ffffffffffffffffffffffffffffffffffffffff16145b91505092915050565b60006002600083815260200190815260200160002060009054906101000a900473ffffffffffffffffffffffffffffffffffffffff169050919050565b600081600001549050919050565b8173ffffffffffffffffffffffffffffffffffffffff168373ffffffffffffffffffffffffffffffffffffffff1603611aae576040517f08c379a0000000000000000000000000000000000000000000000000000000008152600401611aa5906136c2565b60405180910390fd5b80600560008573ffffffffffffffffffffffffffffffffffffffff1673ffffffffffffffffffffffffffffffffffffffff16815260200190815260200160002060008473ffffffffffffffffffffffffffffffffffffffff1673ffffffffffffffffffffffffffffffffffffffff16815260200190815260200160002060006101000a81548160ff0219169083151502179055508173ffffffffffffffffffffffffffffffffffffffff168373ffffffffffffffffffffffffffffffffffffffff167f17307eab39ab6107e8899845ad3d59bd9653f200f220920489ca2b5937696c3183604051611b9f9190612513565b60405180910390a3505050565b611bb7848484611667565b611bc384848484612094565b611c02576040517f08c379a0000000000000000000000000000000000000000000000000000000008152600401611bf990613754565b60405180910390fd5b50505050565b606060405180602001604052806000815250905090565b6060611c2a8261155b565b6000611c34611c08565b90506000815111611c545760405180602001604052806000815250611c7f565b80611c5e8461221b565b604051602001611c6f9291906131b2565b6040516020818303038152906040525b915050919050565b6001816000016000828254019250508190555050565b600073ffffffffffffffffffffffffffffffffffffffff168273ffffffffffffffffffffffffffffffffffffffff1603611d0c576040517f08c379a0000000000000000000000000000000000000000000000000000000008152600401611d03906137c0565b60405180910390fd5b611d1581611f27565b15611d55576040517f08c379a0000000000000000000000000000000000000000000000000000000008152600401611d4c9061382c565b60405180910390fd5b611d63600083836001611f68565b611d6c81611f27565b15611dac576040517f08c379a0000000000000000000000000000000000000000000000000000000008152600401611da39061382c565b60405180910390fd5b6001600360008473ffffffffffffffffffffffffffffffffffffffff1673ffffffffffffffffffffffffffffffffffffffff16815260200190815260200160002060008282540192505081905550816002600083815260200190815260200160002060006101000a81548173ffffffffffffffffffffffffffffffffffffffff021916908373ffffffffffffffffffffffffffffffffffffffff160217905550808273ffffffffffffffffffffffffffffffffffffffff16600073ffffffffffffffffffffffffffffffffffffffff167fddf252ad1be2c89b69c2b068fc378daa952ba7f163c4a11628f55a4df523b3ef60405160405180910390a4611eb660008383600161208e565b5050565b611ec382611f27565b611f02576040517f08c379a0000000000000000000000000000000000000000000000000000000008152600401611ef9906138be565b60405180910390fd5b80600660008481526020019081526020016000209081611f229190613480565b505050565b60008073ffffffffffffffffffffffffffffffffffffffff16611f49836119f5565b73ffffffffffffffffffffffffffffffffffffffff1614159050919050565b600181111561208857600073ffffffffffffffffffffffffffffffffffffffff168473ffffffffffffffffffffffffffffffffffffffff1614611ffc5780600360008673ffffffffffffffffffffffffffffffffffffffff1673ffffffffffffffffffffffffffffffffffffffff1681526020019081526020016000206000828254611ff491906138de565b925050819055505b600073ffffffffffffffffffffffffffffffffffffffff168373ffffffffffffffffffffffffffffffffffffffff16146120875780600360008573ffffffffffffffffffffffffffffffffffffffff1673ffffffffffffffffffffffffffffffffffffffff168152602001908152602001600020600082825461207f9190613039565b925050819055505b5b50505050565b50505050565b60006120b58473ffffffffffffffffffffffffffffffffffffffff166122e9565b1561220e578373ffffffffffffffffffffffffffffffffffffffff1663150b7a026120de6115a6565b8786866040518563ffffffff1660e01b81526004016121009493929190613967565b6020604051808303816000875af192505050801561213c57506040513d601f19601f8201168201806040525081019061213991906139c8565b60015b6121be573d806000811461216c576040519150601f19603f3d011682016040523d82523d6000602084013e612171565b606091505b5060008151036121b6576040517f08c379a00000000000000000000000000000000000000000000000000000000081526004016121ad90613754565b60405180910390fd5b805181602001fd5b63150b7a0260e01b7bffffffffffffffffffffffffffffffffffffffffffffffffffffffff1916817bffffffffffffffffffffffffffffffffffffffffffffffffffffffff191614915050612213565b600190505b949350505050565b60606000600161222a8461230c565b01905060008167ffffffffffffffff81111561224957612248612986565b5b6040519080825280601f01601f19166020018201604052801561227b5781602001600182028036833780820191505090505b509050600082602001820190505b6001156122de578080600190039150507f3031323334353637383961626364656600000000000000000000000000000000600a86061a8153600a85816122d2576122d16139f5565b5b04945060008503612289575b819350505050919050565b6000808273ffffffffffffffffffffffffffffffffffffffff163b119050919050565b600080600090507a184f03e93ff9f4daa797ed6e38ed64bf6a1f010000000000000000831061236a577a184f03e93ff9f4daa797ed6e38ed64bf6a1f01000000000000000083816123605761235f6139f5565b5b0492506040810190505b6d04ee2d6d415b85acef810000000083106123a7576d04ee2d6d415b85acef8100000000838161239d5761239c6139f5565b5b0492506020810190505b662386f26fc1000083106123d657662386f26fc1000083816123cc576123cb6139f5565b5b0492506010810190505b6305f5e10083106123ff576305f5e10083816123f5576123f46139f5565b5b0492506008810190505b612710831061242457612710838161241a576124196139f5565b5b0492506004810190505b60648310612447576064838161243d5761243c6139f5565b5b0492506002810190505b600a8310612456576001810190505b80915050919050565b6000604051905090565b600080fd5b600080fd5b60007fffffffff0000000000000000000000000000000000000000000000000000000082169050919050565b6124a881612473565b81146124b357600080fd5b50565b6000813590506124c58161249f565b92915050565b6000602082840312156124e1576124e0612469565b5b60006124ef848285016124b6565b91505092915050565b60008115159050919050565b61250d816124f8565b82525050565b60006020820190506125286000830184612504565b92915050565b600081519050919050565b600082825260208201905092915050565b60005b8381101561256857808201518184015260208101905061254d565b60008484015250505050565b6000601f19601f8301169050919050565b60006125908261252e565b61259a8185612539565b93506125aa81856020860161254a565b6125b381612574565b840191505092915050565b600060208201905081810360008301526125d88184612585565b905092915050565b6000819050919050565b6125f3816125e0565b81146125fe57600080fd5b50565b600081359050612610816125ea565b92915050565b60006020828403121561262c5761262b612469565b5b600061263a84828501612601565b91505092915050565b600073ffffffffffffffffffffffffffffffffffffffff82169050919050565b600061266e82612643565b9050919050565b61267e81612663565b82525050565b60006020820190506126996000830184612675565b92915050565b6126a881612663565b81146126b357600080fd5b50565b6000813590506126c58161269f565b92915050565b600080604083850312156126e2576126e1612469565b5b60006126f0858286016126b6565b925050602061270185828601612601565b9150509250929050565b612714816125e0565b82525050565b600060208201905061272f600083018461270b565b92915050565b60008060006060848603121561274e5761274d612469565b5b600061275c868287016126b6565b935050602061276d868287016126b6565b925050604061277e86828701612601565b9150509250925092565b600081519050919050565b600082825260208201905092915050565b6000819050602082019050919050565b6127bd816125e0565b82525050565b60006127cf83836127b4565b60208301905092915050565b6000602082019050919050565b60006127f382612788565b6127fd8185612793565b9350612808836127a4565b8060005b8381101561283957815161282088826127c3565b975061282b836127db565b92505060018101905061280c565b5085935050505092915050565b6000602082019050818103600083015261286081846127e8565b905092915050565b60006020828403121561287e5761287d612469565b5b600061288c848285016126b6565b91505092915050565b60006128a082612643565b9050919050565b6128b081612895565b82525050565b600060a0820190506128cb600083018861270b565b6128d860208301876128a7565b6128e5604083018661270b565b6128f26060830185612504565b81810360808301526129048184612585565b90509695505050505050565b612919816124f8565b811461292457600080fd5b50565b60008135905061293681612910565b92915050565b6000806040838503121561295357612952612469565b5b6000612961858286016126b6565b925050602061297285828601612927565b9150509250929050565b600080fd5b600080fd5b7f4e487b7100000000000000000000000000000000000000000000000000000000600052604160045260246000fd5b6129be82612574565b810181811067ffffffffffffffff821117156129dd576129dc612986565b5b80604052505050565b60006129f061245f565b90506129fc82826129b5565b919050565b600067ffffffffffffffff821115612a1c57612a1b612986565b5b612a2582612574565b9050602081019050919050565b82818337600083830152505050565b6000612a54612a4f84612a01565b6129e6565b905082815260208101848484011115612a7057612a6f612981565b5b612a7b848285612a32565b509392505050565b600082601f830112612a9857612a9761297c565b5b8135612aa8848260208601612a41565b91505092915050565b60008060008060808587031215612acb57612aca612469565b5b6000612ad9878288016126b6565b9450506020612aea878288016126b6565b9350506040612afb87828801612601565b925050606085013567ffffffffffffffff811115612b1c57612b1b61246e565b5b612b2887828801612a83565b91505092959194509250565b600067ffffffffffffffff821115612b4f57612b4e612986565b5b612b5882612574565b9050602081019050919050565b6000612b78612b7384612b34565b6129e6565b905082815260208101848484011115612b9457612b93612981565b5b612b9f848285612a32565b509392505050565b600082601f830112612bbc57612bbb61297c565b5b8135612bcc848260208601612b65565b91505092915050565b60008060008060808587031215612bef57612bee612469565b5b600085013567ffffffffffffffff811115612c0d57612c0c61246e565b5b612c1987828801612ba7565b945050602085013567ffffffffffffffff811115612c3a57612c3961246e565b5b612c4687828801612ba7565b9350506040612c5787828801612927565b9250506060612c6887828801612601565b91505092959194509250565b60008060408385031215612c8b57612c8a612469565b5b6000612c99858286016126b6565b9250506020612caa858286016126b6565b9150509250929050565b7f4e487b7100000000000000000000000000000000000000000000000000000000600052602260045260246000fd5b60006002820490506001821680612cfb57607f821691505b602082108103612d0e57612d0d612cb4565b5b50919050565b7f4552433732313a20617070726f76616c20746f2063757272656e74206f776e6560008201527f7200000000000000000000000000000000000000000000000000000000000000602082015250565b6000612d70602183612539565b9150612d7b82612d14565b604082019050919050565b60006020820190508181036000830152612d9f81612d63565b9050919050565b7f4552433732313a20617070726f76652063616c6c6572206973206e6f7420746f60008201527f6b656e206f776e6572206f7220617070726f76656420666f7220616c6c000000602082015250565b6000612e02603d83612539565b9150612e0d82612da6565b604082019050919050565b60006020820190508181036000830152612e3181612df5565b9050919050565b7f4e487b7100000000000000000000000000000000000000000000000000000000600052601160045260246000fd5b6000612e72826125e0565b9150612e7d836125e0565b9250828202612e8b816125e0565b91508282048414831517612ea257612ea1612e38565b5b5092915050565b7f6e6f6e20736f6e6f207374617469207665727361746920616262617374616e7a60008201527f6120666f6e646900000000000000000000000000000000000000000000000000602082015250565b6000612f05602783612539565b9150612f1082612ea9565b604082019050919050565b60006020820190508181036000830152612f3481612ef8565b9050919050565b7f4552433732313a2063616c6c6572206973206e6f7420746f6b656e206f776e6560008201527f72206f7220617070726f76656400000000000000000000000000000000000000602082015250565b6000612f97602d83612539565b9150612fa282612f3b565b604082019050919050565b60006020820190508181036000830152612fc681612f8a565b9050919050565b7f4552433732313a20696e76616c696420746f6b656e2049440000000000000000600082015250565b6000613003601883612539565b915061300e82612fcd565b602082019050919050565b6000602082019050818103600083015261303281612ff6565b9050919050565b6000613044826125e0565b915061304f836125e0565b925082820190508082111561306757613066612e38565b5b92915050565b7f4e487b7100000000000000000000000000000000000000000000000000000000600052603260045260246000fd5b60006130a7826125e0565b91507fffffffffffffffffffffffffffffffffffffffffffffffffffffffffffffffff82036130d9576130d8612e38565b5b600182019050919050565b7f4552433732313a2061646472657373207a65726f206973206e6f74206120766160008201527f6c6964206f776e65720000000000000000000000000000000000000000000000602082015250565b6000613140602983612539565b915061314b826130e4565b604082019050919050565b6000602082019050818103600083015261316f81613133565b9050919050565b600081905092915050565b600061318c8261252e565b6131968185613176565b93506131a681856020860161254a565b80840191505092915050565b60006131be8285613181565b91506131ca8284613181565b91508190509392505050565b7f6e6f6e20736569206175746f72697a7a61746f00000000000000000000000000600082015250565b600061320c601383612539565b9150613217826131d6565b602082019050919050565b6000602082019050818103600083015261323b816131ff565b9050919050565b7f737469616d6f206c61766f72616e646f20706572206c61206368696573613f2060008201527f3a29000000000000000000000000000000000000000000000000000000000000602082015250565b600061329e602283612539565b91506132a982613242565b604082019050919050565b600060208201905081810360008301526132cd81613291565b9050919050565b60008190508160005260206000209050919050565b60006020601f8301049050919050565b600082821b905092915050565b6000600883026133367fffffffffffffffffffffffffffffffffffffffffffffffffffffffffffffffff826132f9565b61334086836132f9565b95508019841693508086168417925050509392505050565b6000819050919050565b600061337d613378613373846125e0565b613358565b6125e0565b9050919050565b6000819050919050565b61339783613362565b6133ab6133a382613384565b848454613306565b825550505050565b600090565b6133c06133b3565b6133cb81848461338e565b505050565b5b818110156133ef576133e46000826133b8565b6001810190506133d1565b5050565b601f82111561343457613405816132d4565b61340e846132e9565b8101602085101561341d578190505b613431613429856132e9565b8301826133d0565b50505b505050565b600082821c905092915050565b600061345760001984600802613439565b1980831691505092915050565b60006134708383613446565b9150826002028217905092915050565b6134898261252e565b67ffffffffffffffff8111156134a2576134a1612986565b5b6134ac8254612ce3565b6134b78282856133f3565b600060209050601f8311600181146134ea57600084156134d8578287015190505b6134e28582613464565b86555061354a565b601f1984166134f8866132d4565b60005b82811015613520578489015182556001820191506020850194506020810190506134fb565b8683101561353d5784890151613539601f891682613446565b8355505b6001600288020188555050505b505050505050565b7f4552433732313a207472616e736665722066726f6d20696e636f72726563742060008201527f6f776e6572000000000000000000000000000000000000000000000000000000602082015250565b60006135ae602583612539565b91506135b982613552565b604082019050919050565b600060208201905081810360008301526135dd816135a1565b9050919050565b7f4552433732313a207472616e7366657220746f20746865207a65726f2061646460008201527f7265737300000000000000000000000000000000000000000000000000000000602082015250565b6000613640602483612539565b915061364b826135e4565b604082019050919050565b6000602082019050818103600083015261366f81613633565b9050919050565b7f4552433732313a20617070726f766520746f2063616c6c657200000000000000600082015250565b60006136ac601983612539565b91506136b782613676565b602082019050919050565b600060208201905081810360008301526136db8161369f565b9050919050565b7f4552433732313a207472616e7366657220746f206e6f6e20455243373231526560008201527f63656976657220696d706c656d656e7465720000000000000000000000000000602082015250565b600061373e603283612539565b9150613749826136e2565b604082019050919050565b6000602082019050818103600083015261376d81613731565b9050919050565b7f4552433732313a206d696e7420746f20746865207a65726f2061646472657373600082015250565b60006137aa602083612539565b91506137b582613774565b602082019050919050565b600060208201905081810360008301526137d98161379d565b9050919050565b7f4552433732313a20746f6b656e20616c7265616479206d696e74656400000000600082015250565b6000613816601c83612539565b9150613821826137e0565b602082019050919050565b6000602082019050818103600083015261384581613809565b9050919050565b7f45524337323155524953746f726167653a2055524920736574206f66206e6f6e60008201527f6578697374656e7420746f6b656e000000000000000000000000000000000000602082015250565b60006138a8602e83612539565b91506138b38261384c565b604082019050919050565b600060208201905081810360008301526138d78161389b565b9050919050565b60006138e9826125e0565b91506138f4836125e0565b925082820390508181111561390c5761390b612e38565b5b92915050565b600081519050919050565b600082825260208201905092915050565b600061393982613912565b613943818561391d565b935061395381856020860161254a565b61395c81612574565b840191505092915050565b600060808201905061397c6000830187612675565b6139896020830186612675565b613996604083018561270b565b81810360608301526139a8818461392e565b905095945050505050565b6000815190506139c28161249f565b92915050565b6000602082840312156139de576139dd612469565b5b60006139ec848285016139b3565b91505092915050565b7f4e487b7100000000000000000000000000000000000000000000000000000000600052601260045260246000fdfea26469706673582212208cbf21e6ca4e03394cc6dc163af412d8966487d31ba281ebd024a90e09f60a0564736f6c63430008110033",
  "immutableReferences": {},
  "source": "// SPDX-License-Identifier: MIT\r\npragma solidity ^0.8.4;\r\n\r\nimport \"@openzeppelin/contracts/utils/Counters.sol\";\r\nimport \"@openzeppelin/contracts/token/ERC721/extensions/ERC721URIStorage.sol\";\r\nimport \"@openzeppelin/contracts/token/ERC721/ERC721.sol\";\r\n\r\ncontract ClothesFactory is ERC721URIStorage {\r\n    using Counters for Counters.Counter;\r\n\r\n    //Counters.Counter private dressonSale;\r\n    Counters.Counter private dressCount;\r\n\r\n    uint256 public PREZZO_LISTINO = 2 ether;\r\n\r\n    address payable private ownerAdil;\r\n\r\n    event DressItemCreated(\r\n        uint256 tokenId,\r\n        address seller,\r\n        address owner,\r\n        uint256 price\r\n    );\r\n    event DressonSale(uint256 tokenId, address owner, uint256 price);\r\n\r\n    struct Dress {\r\n        uint256 tokenId;\r\n        address payable owner;\r\n        string nome;\r\n        uint256 price;\r\n        bool onSale;\r\n    }\r\n\r\n    mapping(uint256 => Dress) private idToDress;\r\n\r\n    constructor() ERC721(\"Dress\", \"DRS\") {\r\n        ownerAdil = payable(msg.sender);\r\n    }\r\n\r\n    function updatePrezzoListino(uint256 newPrice) public {\r\n        require(msg.sender == ownerAdil, \"non sei autorizzato\");\r\n        PREZZO_LISTINO = newPrice;\r\n    }\r\n\r\n    //stiamo mintando un nuovo NFT\r\n    function createDress(\r\n        string memory TokenURI,\r\n        string memory _n,\r\n        bool _onSale,\r\n        uint256 prezzo\r\n    ) public payable returns (uint256) {\r\n        require(prezzo > 0, \"stiamo lavorando per la chiesa? :)\");\r\n\r\n        require(msg.value == PREZZO_LISTINO);\r\n\r\n        dressCount.increment();\r\n        uint256 newDressId = dressCount.current();\r\n\r\n        address a = msg.sender;\r\n        _mint(a, newDressId);\r\n        _setTokenURI(newDressId, TokenURI);\r\n\r\n        Dress memory t = Dress(\r\n            newDressId,\r\n            payable(msg.sender),\r\n            _n,\r\n            prezzo,\r\n            _onSale\r\n        );\r\n\r\n        idToDress[newDressId] = t;\r\n        payable(ownerAdil).transfer(PREZZO_LISTINO);\r\n\r\n        return newDressId;\r\n    }\r\n\r\n    function createDressMarketSale(uint256 _dressId) public payable {\r\n        \r\n        uint256 price = idToDress[_dressId].price * (1 ether);\r\n        \r\n        address payable ow = idToDress[_dressId].owner;\r\n        require(msg.value == price, \"non sono stati versati abbastanza fondi\");\r\n\r\n        \r\n\r\n        idToDress[_dressId].owner = payable(msg.sender);\r\n        idToDress[_dressId].onSale = false;\r\n        \r\n\r\n        //dressonSale.increment();\r\n         _transfer(ow, msg.sender, _dressId);\r\n       \r\n        \r\n        payable(ow).transfer(msg.value);\r\n    }\r\n\r\n    function getAllOnSale() public view returns (uint256[] memory) {\r\n        uint256 itemCount = dressCount.current();\r\n        //uint256 unonSale = itemCount - dressonSale.current();\r\n        uint256 j = 0;\r\n\r\n        uint256[] memory allId = new uint256[](itemCount);\r\n\r\n        for (uint256 i = 0; i < itemCount; i++) {\r\n            if (idToDress[i + 1].onSale == true) {\r\n                allId[j] = idToDress[i + 1].tokenId;\r\n                j++;\r\n            }\r\n        }\r\n        return allId;\r\n    }\r\n\r\n    function getMyDress() public view returns(uint256[] memory){    \r\n        uint256 j = 0;\r\n        \r\n        uint256[] memory allMyId = new uint256[](dressCount.current());\r\n        \r\n        for (uint256 i = 0; i < dressCount.current(); i++) {\r\n                if(address(idToDress[i+1].owner) == address(msg.sender)){\r\n                allMyId[j] = idToDress[i+1].tokenId;\r\n                j++;\r\n            }       \r\n        }\r\n        return allMyId; \r\n    } \r\n\r\n    //funcione che ritorna il prezzo per creare un nuovo item\r\n    function getPrezzoListino() public view returns (uint256) {\r\n        return PREZZO_LISTINO;\r\n    }\r\n\r\n    function getDress(uint256 _id)\r\n        public\r\n        view\r\n        returns (\r\n            uint256,\r\n            address payable,\r\n            uint256,\r\n            bool,\r\n            string memory\r\n        )\r\n    {\r\n        uint pric = idToDress[_id].price * (1 ether) ;\r\n        return (\r\n            idToDress[_id].tokenId,\r\n            idToDress[_id].owner,\r\n            pric,\r\n            idToDress[_id].onSale,\r\n            idToDress[_id].nome\r\n        );\r\n    }\r\n\r\n    function setOnSale(uint _tokenId) public returns(uint256 ){\r\n        if(idToDress[_tokenId].onSale == false){\r\n        idToDress[_tokenId].onSale= true;\r\n        return 1;\r\n        //dressonSale.decrement();\r\n        } else{\r\n            return 0;\r\n        }\r\n    }\r\n\r\n    \r\n}\r\n",
  "sourcePath": "C:\\Users\\ddefs\\OneDrive\\Desktop\\metaclo\\contracts\\ClothesFactory.sol",
  "compiler": {
    "name": "solc",
    "version": "0.8.17+commit.8df45f5f.Emscripten.clang"
  },
  "schemaVersion": "3.4.10",
  "updatedAt": "2023-01-14T15:14:48.240Z",
  "networkType": "ethereum",
  "devdoc": {
    "kind": "dev",
    "methods": {
      "approve(address,uint256)": {
        "details": "See {IERC721-approve}."
      },
      "balanceOf(address)": {
        "details": "See {IERC721-balanceOf}."
      },
      "getApproved(uint256)": {
        "details": "See {IERC721-getApproved}."
      },
      "isApprovedForAll(address,address)": {
        "details": "See {IERC721-isApprovedForAll}."
      },
      "name()": {
        "details": "See {IERC721Metadata-name}."
      },
      "ownerOf(uint256)": {
        "details": "See {IERC721-ownerOf}."
      },
      "safeTransferFrom(address,address,uint256)": {
        "details": "See {IERC721-safeTransferFrom}."
      },
      "safeTransferFrom(address,address,uint256,bytes)": {
        "details": "See {IERC721-safeTransferFrom}."
      },
      "setApprovalForAll(address,bool)": {
        "details": "See {IERC721-setApprovalForAll}."
      },
      "supportsInterface(bytes4)": {
        "details": "See {IERC165-supportsInterface}."
      },
      "symbol()": {
        "details": "See {IERC721Metadata-symbol}."
      },
      "tokenURI(uint256)": {
        "details": "See {IERC721Metadata-tokenURI}."
      },
      "transferFrom(address,address,uint256)": {
        "details": "See {IERC721-transferFrom}."
      }
    },
    "version": 1
  },
  "userdoc": {
    "kind": "user",
    "methods": {},
    "version": 1
  }
}